S123F000010FCEE3FF086F008CE48726F8CEE484867FA70086FFA7028606A701A703CEE400
S123F02018FFE42F8EE47E8601B7E4237FE43B7FE4387FE41C7FE43E8640B7E41D861FBD34
S123F040F195CEF0E5FFE419BDF7AE7EF0BBCEE48486FFA700863FA7026D002A068B4024A0
S123F060F620EB8400B7E41BC60017BAE41BA7026D002A055426F320D54F5425034C20FAE3
S123F08079E41B4979E41B496D002AFCBDF169CEF0A3BDF183A600B7E41BC601F7E41CF69E
S123F0A0E48639000F0E0D0102030C0405060B0708090A8485868780818283C620CEE41A63
S123F0C017084824FCA60043B7E484F7E486BDF17186FFB7E484B7E48637FEE419AD003346
S123F0E05426DA20D67DE41C260139BDF1EF2B157DE43E260BBDF1CCBDF12086037EF19563
S123F100FEE43F2003CEF11048BDF183EE006E00F1F6F024F2CAF6F3F4C5F4D1F4D7F3889F
S123F1203637FFE426CEE42CA6001654545454840F3736088CE42F26EFCEE422C605FFE42D
S123F14028CEF15932BDF183A600FEE428A700095A2AEBFEE4263233393F065B4F666D7D54
S123F160077F67777C395E7971FFE424CE0AEA200BFFE424CE006D2003FFE4240926FDFEA0
S123F180E42439FFE424BBE425B7E42524037CE424FEE42439FFE426CEE4224424026F00FF
S123F1A0098CE41C26F5FEE42639FFE426FEE42C7DE42327077FE4236F00200868006800A4
S123F1C068006800AA00A700FEE42639377DE423270B7FE4237FE42CB7E42D2010484848F7
S123F1E048C6034979E42D79E42C5A2AF633397FE41CB6E41B39CEF205FFE4197FE43EFEEB
S123F200E42C7EF2BA7DE41C260139BDF1EFFEE42CF6E43E27772B534D2B0DBDF1CCBDF147
S123F22020CE0077FFE42139818326FBFEE42C09FFE42CB6E42DF6E42CB0E42BF2E42A4D04
S123F2402A015C5D2611B7E42EBDF120863CBDF1958680B7E43E39CEBAD0FFE42CBDF120A6
S123F2608607BDF19586FFB7E43E395C2713FEE42A81852713818326AEB6E42EA7000820D2
S123F28007818026A2FEE42A7FE43E202D4D2A25818026030920238183260308201C818418
S123F2A0261D9600BDF1958601B7E43EB7E423FFE42A7EF221BDF1AA20058601B7E423A60A
S123F2C000B7E42EFFE42C7EF1207DE43E27067FE43E7EF4DCCEF2EEFFE419CEF0BBFFE402
S123F2E07D8EE47C7FE4418601B7E42320407DE41C260139BDF1EF2B05BDF1CC20308180E1
S123F300260DB6E4414A2A028605B7E441201081832611B6E4414C810626014FB7E441860D
S123F32001B7E42381872606CEF2CA7EF701B6E4414848FEF370BDF183A60336A60236EE2E
S123F340007DE423270AA600B7E42CA601B7E42DBDF12032B7E42132B7E4222A087FE41DBB
S123F3607FE41E2005B6E42CA700B6E42DA70139E4367339E43200F7E43100FCE434065E6E
S123F380E42F6D73E43039B97DE43E260139CEF39CFFE4198601B7E4237EF3C07DE41C26FF
S123F3A00139BDF1EF810F2206BDF1CC7EF12081842602203C818526037EF42E81832630FF
S123F3C0B6E444B7E42E271BFEE442080808088CE4592603CEE4456D0327F0FFE442EE0079
S123F3E0FFE42CBDF1207DE444260586FEBDF19539BDF4A025328D46B6E44481052C29FE2A
S123F400E42CA600436300A100261D43A700FEE442A702B6E42CF6E42DA700E7017CE444F1
S123F4206C037CE42EBDF1208601B7E423398D70248EFEE4426F036F027AE44420827FE422
S123F44044CEE4456D0327057CE4442003FFE442080808088CE45926EB8601B7E423397DF0
S123F460E4442720CEE4456D032710FFE442863FEE00E600A700FEE442E702080808088C5D
S123F480E45926E339CEE445A602270AFFE442EE00A700FEE442080808088CE45926E9390A
S123F4A0B6E42CF6E42DCEE445A100270B080808088CE45926F30C39E10126F16D0327EDED
S123F4C00DFFE442398601CE0716B7E43EFFE421394FCE000020F37DE43E2706BDF69C7E6C
S123F4E0F024CEF4ECFFE41986BB201D7DE41C260139BDF1EF2B05BDF1CC201686EEB1E469
S123F5002E2712FEE42CFFE460B7E42E7FE42C7FE42D7EF120FEE42CFFE462BDF6307EF014
S123F520248605F6E484014CF6E4852AFAC802F7E4853996FFB7E4597FE45A7FE45B7FE420
S123F5405C8DDE7DF5437DF546B7E45D8DD3811B2CF4B7E45D8DCA16FBE45DC12B2FF37E32
S123F560F562F6E4848B052010860020007FE45AB7E45B7FE45C860A4CF6E4852AFAF6E4C1
S123F580847DF5810181342D057CE45C20057AE45C2000F6E45ABBE45BB7E45BC900F7E485
S123F5A05A260301200481172C0AC6055A2AFD7EF5B220C278E45C76E4592408815D2DA933
S123F5C0862420A9B6E459BBE45EB7E45EB6E45939C60FBDF5FF86184A2AFD20005A26F377
S123F5E0BDF5FF39C607BDF5FF86384A2AFD015A26F4BDF5FF861D4A2AFD7EF5FD01398606
S123F60080B8E486B7E48639B7E4598DD78609B7E45F7DF61286134A2AFD0D76E459250590
S123F6208DC27EF62A8DAA7EF62A7AE45F2AE639CE034886FFC6105A2AFDBDF6080926F32C
S123F6408653C6105A2AFDBDF608017FE45ECEE460A60016FBE45EF7E45E01C60D5A2AFD60
S123F660BDF608088CE46426E80101FEE460A60016FBE45EF7E45EF7E45EC60B5A2AFDBD23
S123F680F6087EF685BCE46227030820E170E45EB6E45EC6145A2AFDBDF60839BDF53381DB
S123F6A05326F9CEE4607FE45EBDF533A700088CE46426F5FEE460BDF5337DE43E2704A7E6
S123F6C0002004A1002611BCE46227030820E8BDF5337DE45E260139FFE434B7E4337DE4A4
S123F6E03E2A0139CE7177FFE41DCE0638FFE41F7EF7357DE4232606FEE42CFFE436CEF75A
S123F7000BFFE4398601B7E4382003BDF45FBEE42F8655363281552610B6E43736B6E4363A
S123F7203686AA363281AA271ECE406DFFE41DCE7340FFE41FCE5353FFE4218EE47ECEF063
S123F740A2FFE4197EF0BBFEE434F6E432B6E433368601B7E43B7DE4382712863CB7E485A8
S123F760B6E486860EB7E4878634B7E485B6E431063239010F8604B7E487B6E4872A12BDC3
S123F780F04E818127038D263B7DE43B26037EF024BFE42F8EE47E8D218D137FE43B7DE4A7
S123F7A03827087FE438FEE4396E007EF2CAB6E486B7E48786FFB7E48639BEE42FCEE431AB
S123F7C032A700088CE43826F7BFE42F8EE47C39010FBFE42F8EE47E8DE0FEE43609FFE443
S112F7E036BDF4857FE43B7EF2CAFEE43C6E0046
S10BF7F8F7EAF7D0F773F00003
S9030000FC
