S123F800F87BF85EF870F824F80A34068D16260F1F898D1026091E981F0135061A04393572
S123F820061CFB398D18261397118D12260D97139611484848489B131A04391CFB398D1EA5
S123F84081302517813922048030200C84DF814125098146220580371A04391CFB39B6C0E6
S123F86000850127F9B6C0010D0E2601398D0C39A68081042601398D0220F53404F6C0007D
S123F880C50227F9B7C0013504393B6E9F00026E9F00046E9F00066E9F00086E9F000A6E8B
S123F8A09F000C1AFF4F1F8B10CE01008E0000CCF88AED81ED81ED81ED81ED81ED81ED81CA
S123F8C08603B7C0008615B7C0008EF966BDF8708EF97CBDF8708601970EBDF85E817F2E6B
S123F8E02E810D2732813F271081732731816A27108EF97FBDF87020D78EF9A8BDF87020F4
S123F900CF8620BDF87BBDF80A26E6AD8420C18EF985BDF87020B9860ABDF87B20B20F0EA8
S123F920C6FF20015F34040F0FBDF85E815326F9BDF85E8139272C813126EEBDF82426231A
S123F9403402BDF80A261C3504C002BDF82426135A270C6DE42702A784A180260620EC0CC8
S123F9600F27C47EF8D00D0A4672656542756720363830392076312E300D0A043E20043FB4
S123F9803F3F0D0A04596F7572207465726D696E616C2069732073657474696E6720746889
S123F9A065204D53420D0A040D0A0A0A2D2D2D2D20467265654275672076312E3020486530
S123F9C06C70202D2D2D2D0D0A0A3F202D2068656C700D0A73202D20646F776E6C6F6164AE
S123F9E020732D7265636F7264730D0A6A202D206A756D7020746F20636F64650D0A0A0ABE
S104FA0004FD
S113FFF0F8A3F88BF88FF893F897F89BF89FF8A379
S9030000FC
